:020000041000EA
:100000000000022001310010552E00103F31001079
:100010004131001043310010453100100000000054
:100020000000000000000000000000004731001048
:1000300049310010000000004B3100104D3100101C
:10004000513100105331001055310010573100105C
:10005000593100105B3100105D3100105F3100102C
:1000600061310010633100106531001067310010FC
:10007000693100106B3100106D3100106F310010CC
:10008000713100107331001075310010773100109C
:10009000793100107B3100107D3100107F3100106C
:1000A000612D001083310010592D00108731001090
:1000B000893100108B3100108D3100108F3100100C
:1000C00091310010933100109531001097310010DC
:1000D000993100109B3100109D3100109F310010AC
:1000E000A1310010A3310010A5310010A73100107C
:1000F000A9310010AB310010AD310010AF3100104C
:10010000B1310010B3310010B5310010B73100101B
:10011000B9310010BB310010BD310010BF310010EB
:10012000C1310010C3310010C5310010C7310010BB
:10013000C9310010CB310010CD310010CF3100108B
:10014000D1310010D3310010D5310010D73100105B
:10015000D9310010DB310010DD310010DF3100102B
:10016000E1310010E3310010E5310010E7310010FB
:10017000E9310010EB310010ED310010EF310010CB
:10018000F1310010F3310010F5310010F73100109B
:10019000F9310010FB310010FD310010FF3100106B
:1001A0000132001003320010053200100732001037
:1001B000093200100B3200100D3200100F32001007
:1001C00011320010133200101532001017320010D7
:1001D000193200101B3200101D3200101F320010A7
:1001E00010B5054C237833B9044B13B10448AFF371
:1001F00000800123237010BD000C002000000000CF
:100200006002011008B5034B1BB103490348AFF36B
:10021000008008BD00000000040C002060020110F6
:100220000D480E49026808B50D4B1A4002600A6875
:1002300000F500001A400A60026801F500011A404A
:1002400002600A6813400B60012002F0A7FE054B14
:1002500001221A6008BD00BF00001050000050507D
:10026000FEEFFFFF1C120020002A02F1FF3307DD22
:10027000043851F8042B40F8042F013B5A1CF8D1E4
:10028000704700BF104B30B5104D19464FF0010EAE
:1002900041F0010105F1080C81F800E06D686A1E6B
:1002A00085B16146013A51F8044B1C60501C03F1C2
:1002B0000403F7D10CEB850529680B460029E7D12B
:1002C000012030BD6546F7E700001850CCDA001079
:1002D0001649174B1748FE2201E011F8012F43F889
:1002E000042B8342F9D11449144B1548002201E034
:1002F00011F8012B43F8042B8342F9D11149124B19
:100300001248002201E011F8012F43F8042B834228
:10031000F9D10F490F4B1048002201E011F8012BD1
:1003200043F8042B8342F9D10120704794DA00107E
:100330000080105034801050A5DA0010008050501A
:1003400040805050B4DA00100080905034809050BB
:10035000C5DA00100080D0502080D050F0B40E4894
:100360000E4E0F4D0F4C104F104940F20E42052318
:100370004FF0000CC7F800C031607260B3602960B4
:100380006A60AB600160426083602160012062604E
:10039000A360F0BC704700BF0000905000001050F8
:1003A000000050500000D050001000500800100015
:1003B000EC4B2DE9F04F42F620124FF40055EA4F76
:1003C0001F614FF48831C3F890704FF0780EC3F876
:1003D00010130B20C3F81054C3F890254FF4F042CB
:1003E000E24CC3F8102A4FF0FF37C3F810E6C3F809
:1003F0009006DF48C3F89007C3F81077DA4F2761FB
:10040000C4F890704FF48837C4F810734FF4126832
:100410004FF4F047C4F81054C4F89085C4F8107A2B
:100420000B27D449C4F810E6D348C4F890766FF08F
:10043000C027C4F89007C4F81077CB4F0F61C1F8FC
:1004400090704FF48837C1F810734FF4F047CB4ADF
:10045000C1F81054C1F89085C1F8107A0B27C1F883
:1004600010E6C348C1F89076BF4FC1F890071761F6
:10047000C2F890704FF48837C2F810734FF4F04709
:10048000C2F81054BA48C2F89085C2F8107A0B2707
:10049000C2F810E6BA4EC2F89076C2F890074FF450
:1004A000E0305E614FF48059C3F894604FF4605CB3
:1004B000C3F814034FF0380A44F6201E1720C3F87F
:1004C00014544FF4E037C3F81495C3F894E5C3F817
:1004D00014CAC3F814A6C3F89406AA48C3F894072C
:1004E0006661C4F89460C4F814731727C4F81454F0
:1004F000C4F81495C4F89485C4F814CAC4F814A6B2
:10050000C4F894764FF4E037C4F894074E61C1F80C
:100510009460C1F814731727C1F81454C1F81495E6
:10052000C1F89485C1F814CAC1F814A6C1F894762C
:10053000954FC1F894774FF0FF37C1F814774FF417
:10054000E0375661C2F89460C2F814731727C2F8F6
:100550001454C2F81495C2F89485C2F814CAC2F8AB
:1005600014A6C2F89476C2F894074FF4C8309E617E
:1005700048F6203EC3F89860C3F818034FF40830DB
:10058000C3F81854C3F898E5C3F818CAC3F818A6F6
:10059000C3F89876C3F898074FF4C830A661C4F83A
:1005A0009860C4F818034FF43260C4F81854C4F8C3
:1005B00098054FF40830C4F818CAC4F818A6C4F84F
:1005C0009876C4F898074FF4C8308E61C1F89860E7
:1005D000C1F818034FF43260C1F81854C1F89805F7
:1005E0004FF40830C1F818CAC1F818A6C1F89876B7
:1005F000C1F898074FF4C83096614FF40C3EC2F82A
:100600009860C2F818034FF43260C2F81854C2F868
:100610009805C2F818CA0120C2F818A6C2F8987640
:10062000C2F898E74FF0FF2EC2F818E7DE6148F6EF
:10063000A03EC3F89C60C3F89C01C3F81C02C3F839
:100640009C020B20C3F81C54C3F81C95C3F89CE50E
:10065000C3F81CCAC3F81CA6C3F89C064B48C3F8D1
:100660009C070120E661C4F89C60C4F89C01C4F8B2
:100670001C02C4F89C024FF43A60C4F81C54C4F83D
:100680001C95C4F89C050B20C4F81CCAC4F81CA611
:10069000C4F89C064FF40830C4F89C070120CE61D2
:1006A000C1F89C60C1F89C01C1F81C02C1F89C0211
:1006B0004FF43A60C1F81C54C1F81C95C1F89C0570
:1006C0000B20C1F81CCAC1F81CA6C1F89C064FF447
:1006D0000830C1F89C070120D661C2F89C60C2F8BE
:1006E0009C01C2F81C02C2F89C024FF43A60C2F8A6
:1006F0001C54C2F81C95C2F89C050B20C2F81CCAF9
:10070000C2F81CA6C2F89C064FF40830C2F89C0739
:100710004FF0FF10C2F81C074FF0030B124F1F627F
:100720004FF4A04044F6A036C3F8A070C3F8A0B1BF
:10073000C3F820B2C3F8A0B2C3F82003C3F8205412
:100740000220C3F8A065124EC3F8205AC3F82066F1
:10075000C3F8A0064FF0FF10C3F8A057C3F8200756
:1007600018E000BF000010500D00010000005050C4
:100770000080021000009050009002100000D05045
:1007800019000100002002100030021005300200A4
:10079000A00080004FF4A0402762C4F8A070C4F805
:1007A000A0B1C4F820B2C4F8A0B2C4F820034FF43A
:1007B0003A60C4F82054C4F8A0050220C4F8205AB6
:1007C000C4F82066C4F8A0064FF4A040C4F8A057AF
:1007D0000F62C1F8A070C1F8A0B1C1F820B2C1F891
:1007E000A0B2C1F820034FF43A60C1F82054C1F818
:1007F000A0050220C1F8205A3746C1F82066C1F88A
:10080000A00643F208063C48C1F8A0671062C2F88F
:10081000A0004FF4A040C2F8A0B1C2F820B2C2F8C4
:10082000A0B2C2F820034FF43A60C2F82054C2F8D4
:10083000A0050220C2F8205AC2F82076C2F8A0060D
:100840000120C2F8A057C3F8A40342F20800C3F87D
:1008500024542A4FC3F824954FF44056C3F8A48576
:10086000C3F8240A4FF48070C3F82476C3F8240137
:10087000C3F8A4674FF01F26C3F824670123C4F808
:10088000A43342F20803C4F82454C4F82495C4F8ED
:10089000A485C4F8243A0123C4F82476C4F82401BA
:1008A000C4F8A457C1F8A43342F20803C1F8245491
:1008B000C1F82495C1F8A485C1F8243A0123C1F8F0
:1008C0002476C1F82401C1F8A4571846C2F8A4330D
:1008D00042F20803C2F82454C2F82495C2F8A48551
:1008E000C2F8243A4FF48073C2F82476C2F8243157
:1008F000C2F8A457BDE8F08F0D000100E0058004A8
:10090000F8B50A490A4C0B4A0B4E0C480C4B0D4DDE
:1009100000273760256003600B600120136002F040
:100920001DFB094B23600120F8BD00BF0000905063
:10093000000010500000D0501C1200200000505049
:10094000090810000808100009001000134A144B91
:1009500012681B684FEA821C91080CF47F5C01F45A
:100960007F51A0F800C041804FEA922C9901120EED
:10097000920101F47F51C28001819A0A99081B0EED
:100980000CF47F5C01F47F5102F47F529B01A0F8CC
:1009900004C041818281C381012070470000405022
:1009A000008040500C4B0F2210B5DA6000245A60D2
:1009B0001A604FF080429C60DC60936923F47033CE
:1009C000034319439161192002F0ECFD03496520AE
:1009D00002F09EFD012010BD0058004021020010D1
:1009E00030B5194D194C93B020236846CDE900531A
:1009F000029402F0D3FF402303A8CDE903530594EA
:100A000002F0CCFF802306A8CDE90653089402F03B
:100A1000C5FF4FF4807309A8CDE909530B9402F088
:100A2000BDFF4FF400730CA8CDE90C530E9402F0F7
:100A3000B5FF4FF400630FA8CDE90F53119402F0F6
:100A4000ADFF13B030BD00BF0080004001000103C6
:100A500008B50A486922012103F0FAF918B10848DB
:100A600004F02AFEFEE7074804F0C4FDBDE8084094
:100A700002484FF4E13103F035BA00BF00E0014015
:100A800010F9001024F9001010B59024224600211E
:100A9000134804F051FD22460021124804F04CFD99
:100AA00022460021104804F047FD224600210F484D
:100AB00004F042FD224600210D4804F03DFD22468F
:100AC00000210C4804F038FD224600210A4804F0B9
:100AD00033FD22460948BDE81040002104F02CBD3A
:100AE0009C0D0020FC1000208C1100202C0E0020FA
:100AF000BC0E00204C0F0020DC0F00206C100020EA
:100B000008B5154915482422FFF7AEFB14491548CE
:100B10002422FFF7A9FB144914482422FFF7A4FB61
:100B2000134914482422FFF79FFB134924224FF056
:100B3000A140FFF799FB114911482422FFF794FBCC
:100B4000104911482422FFF78FFBBDE808400F49E8
:100B50000F482422FFF788BB9C0D00200000405066
:100B6000FC100020008040508C11002000004150FB
:100B70002C0E002000804150BC0E00204C0F0020A5
:100B800000808050DC0F0020000081506C1000209D
:100B90000080815084B02DE9F84308AC84E80F0050
:100BA0004FF47A7002F07AFC654E664B664F0893FC
:100BB0006922002301244FF06B084FF47A70CDE9CD
:100BC0000926CDE90D43CDE90B4786F8008002F0F8
:100BD00065FC08A803F09CF90546002840F0A780B2
:100BE0004FF47A7002F05AFC3B780A9623F0070320
:100BF00043F001034FF47A704FF00209CDE90C5530
:100C00007370CDF82C9002F049FC08A803F080F92D
:100C1000054620B10120BDE8F84304B070474FF409
:100C20007A7002F03BFC1B234FF47A703D703370F6
:100C3000CDE90A64CDE90C7402F030FC08A803F099
:100C400067F905460028E5D14FF47A7002F026FCDA
:100C50003B784FF47A7023F01803CDE90C5573708C
:100C6000CDE90A6902F01AFC08A803F051F905461B
:100C70000028CFD14FF47A7002F010FC1C234FF4FF
:100C80007A703D703370CDE90A64CDE90C7402F0DE
:100C900005FC08A803F03CF905460028BAD14FF43A
:100CA0007A7002F0FBFB3B784FF47A7023F0180364
:100CB000CDE90C557370CDE90A6902F0EFFB08A885
:100CC00003F026F905460028A4D14FF47A7002F00B
:100CD000E5FB4FF47A70CDE90A64CDE90C7486F82F
:100CE00000803D7002F0DAFB08A803F011F9044619
:100CF00000288FD14FF47A7002F0D0FB3B784FF48C
:100D00007A7023F04003CDE90C447370CDE90A6991
:100D100002F0C4FB08A803F0FBF8044600287FF4A7
:100D200079AF4FF47A7002F0B9FB204673E7294699
:100D3000064804F05FFC2046BDE8F84304B0704765
:100D4000B013002000E001406C13002044F90010B3
:100D50002DE9F04FADF50D7DFFF796FE7848794C03
:100D600003F024FC042002F0BDFC02F093FA764864
:100D700004F0A2FC754802F091FB4FF48031002092
:100D8000FFF710FE724804F097FCFFF7E7FAFFF751
:100D900079FAFFF79DFAFFF70BFB4FF46141002250
:100DA000204603F00DFD0146002841F08C87694D77
:100DB0003891402337933B91CDE9344566486B1E0B
:100DC00005F11401482201E010F8012F03F8012F6A
:100DD0009942F9D12B220021604804F0ADFB604B11
:100DE000604903F12300592201E011F8012F03F8B3
:100DF000012F9842F9D11D2200215B4804F09CFB91
:100E00005A4B5B4903F11A00592201E011F8012FF6
:100E100003F8012F9842F9D126220021554804F009
:100E20008BFB554B554903F11B00592201E011F88A
:100E3000012F03F8012F9842F9D1252200215048B3
:100E400004F07AFB4F4B504903F12100592201E095
:100E500011F8012F03F8012F9842F9D11F22002128
:100E60004A4804F069FB4A4B4A4903F11A005922E7
:100E700001E011F8012F03F8012F9842F9D1262241
:100E80000021454804F058FB444B454903F11B0041
:100E9000432201E011F8012F03F8012F9842F9D104
:100EA0002B2200213F4804F047FB3F4B3F4903F111
:100EB0001B00432201E011F8012F03F8012F984293
:100EC000F9D12B2200213A4804F036FB394B3A493C
:100ED00003F11A00432201E011F8012F03F8012F5A
:100EE0009842F9D12B220021344804F025FB344BE1
:100EF000344903F11B00432201E011F8012F03F8EC
:100F0000012F9842F9D12B2200212F4804F014FB25
:100F10002E4B2F4903F11B00432201E011F8012F52
:100F200003F8012F9842F9D12B220021294804F01F
:100F300003FB294B294903F11A00432252E000BF69
:100F400000A002400040044050F9001080841E00C0
:100F50005CF90010B4130020ACF90010C913002094
:100F60002B120020C4F900104F1200206B12002039
:100F7000E8F9001086120020AB12002004FA0010DD
:100F8000C7120020EB12002020FA00100D130020E1
:100F90002B13002044FA0010461300201B0D0020E4
:100FA00060FA0010310D00209B0C00207CFA00102C
:100FB000B10C00205B0D002098FA0010710D00208C
:100FC000DB0C0020B4FA0010F10C00205B0C0020B8
:100FD000D0FA0010710C00201B0C0020ECFA00105D
:100FE00011F8012F03F8012F9842F9D100212B228B
:100FF000924804F0A1FA924802F050FA34A803F0A3
:1010000047FC0146002841F080868E488E4CDFF870
:101010005CB2DFF85C8202F041FAFFF7E1FC8B483A
:10102000202102F0EDFD8948402102F0E9FD8748CA
:10103000802102F0E5FD85484FF4807102F0E0FD6B
:1010400082484FF4007102F0DBFD80484FF40061EC
:1010500002F0D6FD7D48802102F0BAFD0DF1F00AC4
:10106000FFF7F6FC7A49204602F04EFF0123692281
:101070004FF47A70CAE90042CAE902B3CAE90533FB
:10108000CAF8108002F00AFA2021704802F0A0FD90
:1010900040AC6F4802F002FA94E80F008DE80F00B0
:1010A0009AE80F00FFF776FD694802F0F7F9202172
:1010B000664802F0A5FD674B359334A803F0E8FBC2
:1010C0000146002841F01C864FF47A7002F0E6F9E0
:1010D00040215E4802F07CFD5D4802F0DFF994E8B3
:1010E0000F008DE80F009AE80F00FFF753FD5848F6
:1010F00002F0D4F94021554802F082FD564B359359
:1011000034A803F0C5FB0146002841F0F4854FF4F4
:101110007A7002F0C3F980214C4802F059FD4C4826
:1011200002F0BCF994E80F008DE80F009AE80F0078
:10113000FFF730FD464802F0B1F98021434802F044
:101140005FFD464B359334A803F0A2FB014600280F
:1011500041F0CC854FF47A7002F0A0F94FF4807121
:101160003A4802F035FD3A4802F098F994E80F0049
:101170008DE80F009AE80F00FFF70CFD344802F0ED
:101180008DF94FF48071314802F03AFD344B3593BC
:1011900034A803F07DFB0146002841F0A2854FF4FE
:1011A0007A7002F07BF94FF40071284802F010FDCC
:1011B000274802F073F994E80F008DE80F009AE8D1
:1011C0000F00FFF7E7FC224802F068F94FF40071C6
:1011D0001E4802F015FD234B359334A803F058FB4D
:1011E0000146002841F078854FF47A7002F056F9F4
:1011F0004FF40061154802F0EBFC154802F04EF97F
:1012000094E80F008DE80F009AE80F00FFF7C2FC8A
:101210000F4802F043F94FF400610C4802F0F0FC73
:101220004FF47A7002F03AF90F4B359334A803F07B
:101230002FFB0146002841F04A851BE0310C0020BD
:1012400040420F0020A1070000E001400080004064
:10125000A08601001C0D00209C0C00205C0D0020CD
:10126000DC0C00205C0C00201C0C0020B0130020C3
:101270006C1300204FF47A7002F010F90123CAF8C1
:101280000C30CAF8143090223B23002144A88BF87C
:1012900000303595CAF808B0CAF8108004F04CF94F
:1012A00000231C461946902268A82A93A14604F000
:1012B00043F9CDE92244CDE92044CDE91E44CDE9EE
:1012C0001C44CDE91A44CDE91844CDE91644CDE9D2
:1012D0001344CDE91144CDE90E44CDE90C44CDE9E8
:1012E0000944299415942894109427940B942694D7
:1012F0002146CDE9074406942594239B3293229BF3
:101300003193219B3093209B2F931F9B2E931E9BE9
:101310002D931D9B2C931C9B2B931B9B2A9F2A93E5
:101320001A9B2393299B2293199B2193189B20930B
:10133000179B1F93169B05911E93159B1D93289B2E
:101340001C93149B1B93139B1A93129B1993119B31
:101350001893109B1793279B16930F9B15930E9B27
:1013600014930D9B13930C9B12930B9B1193269B31
:1013700010930A9B0F93099B0E93089B0D93079B59
:101380000C93259C069BD64E0B9333972021304619
:1013900088F8009002F01CFC4FF03B034FF47A7089
:1013A0008BF8003002F07AF8504602F0B1FD0028C8
:1013B00041F01E8298F800301B0225934FF03C0349
:1013C0004FF47A708BF8003002F068F8504602F063
:1013D0009FFD002841F00482259A98F800301A43B6
:1013E00025924FF03D034FF47A708BF8003002F0F5
:1013F00055F8504602F08CFD002841F0E78198F83E
:1014000000301B0206934FF03E034FF47A708BF8C6
:10141000003002F043F8504602F07AFD002841F017
:10142000CD81069A98F800301A4306924FF03F0398
:101430004FF47A708BF8003002F030F8504602F02A
:1014400067FD002841F0B08198F800301B02079337
:101450004FF040034FF47A708BF8003002F01EF822
:10146000504602F055FD002841F09681079A98F801
:1014700000301A4307924FF043034FF47A708BF811
:10148000003002F00BF8504602F042FD002841F017
:10149000798198F800301B02089344234FF47A7046
:1014A0008BF8003001F0FAFF504602F031FD0028C1
:1014B00041F06081089A98F800301A430892452359
:1014C0004FF47A708BF8003001F0E8FF504602F0DC
:1014D0001FFD002841F0448198F800301B02099359
:1014E00046234FF47A708BF8003001F0D7FF504656
:1014F00002F00EFD002841F02B81099A98F8003087
:101500001A43099247234FF47A708BF8003001F0A8
:10151000C5FF504602F0FCFC002841F00F8198F80E
:1015200000301B020A9348234FF47A708BF8003086
:1015300001F0B4FF504602F0EBFC002841F0F680C9
:101540000A9A98F800301A430A924FF47A7001F020
:10155000A5FF2021304602F053FB4FF47A7001F0D2
:101560009DFF0B9A069B0C990D9F88F80090A2EBAB
:10157000030C079A099B881A0899791A0E9FBCF1E7
:10158000000FA7EB03020F9F0A9BB8BFCCF1000C22
:101590000028A7EB0303B8BF4042259F44970029CA
:1015A000B8BF4942002AB8BF5242E41B002BB8BF63
:1015B0005B42002CB8BF6442DB11803BE4116D93A9
:1015C000C911A4F1800380392493C011069B6B914B
:1015D000D211089945938038099B6A90803A4FEA66
:1015E000EC1CACF1800C6C924791079A4893402117
:1015F0000A9BCDF8A4C130464692499302F0E8FA1E
:101600004FF03B034FF47A708BF8003001F046FF47
:10161000504602F07DFC002841F07E8098F80030B2
:101620001B0226934FF03C034FF47A708BF8003086
:1016300001F034FF504602F06BFC002841F064805A
:10164000269A98F800301A4326924FF03D034FF443
:101650007A708BF8003001F021FF504602F058FC00
:10166000002841F0478098F800301B020B934FF0A0
:101670003E034FF47A708BF8003001F00FFF5046B4
:1016800002F046FC002841F02D800B9A98F80030BB
:101690001A430B924FF03F034FF47A708BF80030EF
:1016A00001F0FCFE504602F033FC002841F01080AF
:1016B00098F800301B020C934FF040034FF47A70FF
:1016C0008BF8003001F0EAFE504602F021FC0028C1
:1016D00040F0F6870C9A98F800301A430C9201E01B
:1016E000008000404FF043034FF47A708BF80030D5
:1016F00001F0D4FE504602F00BFC002840F0D687E3
:1017000098F800301B020D9344234FF47A708BF845
:10171000003001F0C3FE504602F0FAFB002840F012
:10172000BD870D9A98F800301A430D9245234FF467
:101730007A708BF8003001F0B1FE504602F0E8FB01
:10174000002840F0A18798F800301B020E93462332
:101750004FF47A708BF8003001F0A0FE504602F092
:10176000D7FB002840F088870E9A98F800301A437B
:101770000E9247234FF47A708BF8003001F08EFE02
:10178000504602F0C5FB002840F06C8798F8003006
:101790001B020F9348234FF47A708BF8003001F04E
:1017A0007DFE504602F0B4FB002840F053870F9AAC
:1017B00098F800301A430F924FF47A7001F06EFEE1
:1017C0004021304602F01CFA4FF47A7001F066FEB8
:1017D000109B269F119A1299159C4A97A3EB070E0E
:1017E0000B9B88F80090A2EB030C0C9A139B881AB1
:1017F0000D99149A591ABEF1000F0E9BB8BFCEF185
:10180000000EBCF1000FA2EB0302B8BFCCF1000C3C
:101810000F9B0028B8BF40420029A4EB0303B8BFC8
:101820004942002AB8BF5242002BB8BF5B42DB11CD
:10183000803BC91180397393C0110B9B7191D211F8
:101840000D994B9380380E9B7090803A4FEAEE1EB4
:101850004FEAEC1CAEF1800EACF1800C72924D910F
:101860000C9A4E9380210F9BCDF8B8E13046CDF80D
:10187000BCC14C924F9302F0ABF94FF03B034FF4D5
:101880007A708BF8003001F009FE504602F040FB00
:10189000002840F0D58698F800301B0227934FF0BF
:1018A0003C034FF47A708BF8003001F0F7FD50469E
:1018B00002F02EFB002840F0BB86279A98F80030F3
:1018C0001A4327924FF03D034FF47A708BF80030A3
:1018D00001F0E4FD504602F01BFB002840F09E861C
:1018E00098F800301B0210934FF03E034FF47A70CB
:1018F0008BF8003001F0D2FD504602F009FB0028C1
:1019000040F08486109A98F800301A4310924FF0F5
:101910003F034FF47A708BF8003001F0BFFD504662
:1019200002F0F6FA002840F0678698F800301B02B3
:1019300011934FF040034FF47A708BF8003001F0B0
:10194000ADFD504602F0E4FA002840F04986119AB5
:1019500098F800301A4311924FF043034FF47A7015
:101960008BF8003001F09AFD504602F0D1FA0028C1
:1019700040F02C8698F800301B02129344234FF459
:101980007A708BF8003001F089FD504602F0C0FA01
:10199000002840F01386129A98F800301A431292E9
:1019A00045234FF47A708BF8003001F077FD5046F4
:1019B00002F0AEFA002840F0F78598F800301B02DC
:1019C000139346234FF47A708BF8003001F066FDD4
:1019D000504602F09DFA002840F0DE85139A98F8F0
:1019E00000301A43139247234FF47A708BF800307B
:1019F00001F054FD504602F08BFA002840F0C285F9
:101A000098F800301B02149348234FF47A708BF837
:101A1000003001F043FD504602F07AFA002840F011
:101A2000A985149A98F800301A4314924FF47A70EA
:101A300001F034FD8021304602F0E2F84FF47A7074
:101A400001F02CFD169B279F179A1899199C509707
:101A5000A3EB070E109B88F80090A2EB030C119AE1
:101A6000139B881A1299BEF1000FA4EB01011A9C76
:101A7000B8BFCEF1000EBCF1000FA4EB0302B8BF5B
:101A8000CCF1000C1B9C149B0028B8BF40420029DD
:101A9000A4EB0303B8BF4942002AB8BF5242002B4F
:101AA000B8BF5B42DB11803BC91180397993C0110B
:101AB000109B7791D211129951938038139B769095
:101AC000803A4FEAEE1E4FEAEC1CAEF1800EACF10C
:101AD000800C78925391119A54934FF48071149B17
:101AE000CDF8D0E13046CDF8D4C15292559302F0F2
:101AF0006FF84FF03B034FF47A708BF8003001F031
:101B0000CDFC504602F004FA002840F0298598F8F0
:101B100000301B0228934FF03C034FF47A708BF88F
:101B2000003001F0BBFC504602F0F2F9002840F012
:101B30000F85289A98F800301A4328924FF03D03F9
:101B40004FF47A708BF8003001F0A8FC504602F098
:101B5000DFF9002840F0F28498F800301B0215935A
:101B60004FF03E034FF47A708BF8003001F096FC92
:101B7000504602F0CDF9002840F0D884159A98F824
:101B800000301A4315924FF03F034FF47A708BF8F0
:101B9000003001F083FC504602F0BAF9002840F012
:101BA000BB8498F800301B0216934FF040034FF4AB
:101BB0007A708BF8003001F071FC504602F0A8F901
:101BC000002840F0A184169A98F800301A43169223
:101BD0004FF043034FF47A708BF8003001F05EFC55
:101BE000504602F095F9002840F0848498F80030BF
:101BF0001B02179344234FF47A708BF8003001F0E6
:101C00004DFC504602F084F9002840F06B84179A8E
:101C100098F800301A43179245234FF47A708BF8E6
:101C2000003001F03BFC504602F072F9002840F011
:101C30004F8498F800301B02189346234FF47A70B3
:101C40008BF8003001F02AFC504602F061F90028C0
:101C500040F03684189A98F800301A4318924723B7
:101C60004FF47A708BF8003001F018FC504602F007
:101C70004FF9002840F01A8498F800301B0219939D
:101C800048234FF47A708BF8003001F007FC50467F
:101C900002F03EF9002840F00184199A98F80030CB
:101CA0001A4319924FF47A7001F0F8FB4FF48071E7
:101CB000304601F0A5FF4FF47A7001F0EFFB1C9B5A
:101CC000289F1D9A1E991F9C5697A3EB070E159BE4
:101CD00088F80090A2EB030C169A189B881A1799A3
:101CE000BEF1000FA4EB0101209CB8BFCEF1000EA5
:101CF000BCF1000FA4EB0302B8BFCCF1000C219C97
:101D0000199B0028B8BF40420029A4EB0303B8BFC9
:101D10004942002AB8BF5242002BB8BF5B42DB11D8
:101D2000803BC91180397F93C011159B7D91D211E1
:101D3000179957938038189B7C90803A4FEAEE1E93
:101D40004FEAEC1CAEF1800EACF1800C7E92599102
:101D5000169A5A934FF40071199BCDF8E8E130467A
:101D6000CDF8ECC158925B9301F032FF4FF03B038A
:101D70004FF47A708BF8003001F090FB504602F07F
:101D8000C7F8002840F0818398F800301B0229939F
:101D90004FF03C034FF47A708BF8003001F07EFB7B
:101DA000504602F0B5F8002840F06883299A98F868
:101DB00000301A4329924FF03D034FF47A708BF8AC
:101DC000003001F06BFB504602F0A2F8002840F012
:101DD0004C8398F800301B021A934FF03E034FF4E7
:101DE0007A708BF8003001F059FB504602F090F801
:101DF000002840F033831A9A98F800301A431A9258
:101E00004FF03F034FF47A708BF8003001F046FB3F
:101E1000504602F07DF8002840F0178398F8003013
:101E20001B021B934FF040034FF47A708BF8003085
:101E300001F034FB504602F06BF8002840F0FE82BF
:101E40001B9A98F800301A431B924FF043034FF44B
:101E50007A708BF8003001F021FB504602F058F800
:101E6000002840F0E28298F800301B021C934423C3
:101E70004FF47A708BF8003001F010FB504602F0FE
:101E800047F8002840F0CA821C9A98F800301A439C
:101E90001C9245234FF47A708BF8003001F0FEFA63
:101EA000504602F035F8002840F0AF8298F8003034
:101EB0001B021D9346234FF47A708BF8003001F01B
:101EC000EDFA504602F024F8002840F097821D9A5F
:101ED00098F800301A431D9247234FF47A708BF81C
:101EE000003001F0DBFA504602F012F8002840F012
:101EF0007C8298F800301B021E9348234FF47A70BE
:101F00008BF8003001F0CAFA504602F001F80028C0
:101F100040F064821E9A98F800301A431E924FF4E3
:101F20007A7001F0BBFA4FF40071304601F068FEA0
:101F30004FF47A7001F0B2FA229B299F239A2A99D2
:101F40002B9C5C97A3EB070E1A9B88F80090A2EBE2
:101F5000030C1B9A1D9B881A1C99BEF1000FA4EB61
:101F600001012C9CB8BFCEF1000EBCF1000FA4EB18
:101F70000302B8BFCCF1000C2D9C1E9B0028B8BFFB
:101F800040420029A4EB0303B8BF4942002AB8BF6E
:101F90005242002BB8BF5B42DB11803BC911803934
:101FA0008593C0111A9B8391D2111C995D9380383F
:101FB0001D9B8290803A4FEAEE1E4FEAEC1CAEF178
:101FC000800EACF1800C84925F911B9A60934FF469
:101FD00000611E9BCDF800E23046CDF804C25E924F
:101FE000619301F0F5FD4FF03B034FF47A708BF8ED
:101FF000003001F053FA504601F08AFF002840F00B
:10200000E48198F800301B021F934FF03C034FF41B
:102010007A708BF8003001F041FA504601F078FFF9
:10202000002840F0CB811F9A98F800301A431F9285
:102030004FF03D034FF47A708BF8003001F02EFA28
:10204000504601F065FF002840F0AF8198F800305D
:102050001B0220934FF03E034FF47A708BF8003050
:1020600001F01CFA504601F053FF002840F0968121
:10207000209A98F800301A4320924FF03F034FF413
:102080007A708BF8003001F009FA504601F040FFF9
:10209000002840F07A8198F800301B0221934FF01D
:1020A00040034FF47A708BF8003001F0F7F9504696
:1020B00001F02EFF002840F06181219A98F800304D
:1020C0001A4321924FF043034FF47A708BF800309B
:1020D00001F0E4F9504601F01BFF002840F0458173
:1020E00098F800301B02229344234FF47A708BF847
:1020F000003001F0D3F9504601F00AFF002840F00B
:102100002D81229A98F800301A43229245234FF4E9
:102110007A708BF8003001F0C1F9504601F0F8FEFA
:10212000002840F0128198F800301B0223934623C8
:102130004FF47A708BF8003001F0B0F9504601F09E
:10214000E7FE002840F0FA80239A98F800301A43FE
:10215000239247234FF47A708BF8003001F09EF9F8
:10216000504601F0D5FE002840F0DF8098F800309E
:102170001B022A9348234FF47A708BF8003001F049
:102180008DF9504601F0C4FE002840F0C7802A9A1D
:1021900098F800301A432A924FF47A7001F07EF9D1
:1021A0004FF40061304601F02BFD4FF47A7001F0DE
:1021B00075F92E9A1F9B2F99319C229F3098A2EB84
:1021C000030C209A239BA1EB020E2199401AE11BDC
:1021D000329CBCF1000FA4EB0302B8BFCCF1000CA1
:1021E0002A9C339B67940028B8BF40420029A3EB88
:1021F0000403B8BF4942002AB8BF5242002B8EEAFE
:10220000EE77B8BF5B42A7EBEE77DB11803BFF11A7
:10221000C911D211803F8039803A4FEAEC1CC011BD
:102220008B931F9B8797ACF1800C229F89918038FC
:1022300021998A926293209A239BCDF818C26392C7
:10224000649165976693249C889029460122002317
:102250004FF0320E4FF0300C312707E050F8040CED
:10226000002858D00F7001330132013144A8232BCC
:1022700000EB8200F2D9292BC8BF81F800E03D2A8B
:10228000F1D10D2385F83D3034A80A232494EB873F
:1022900002F0FEFA002840F0B582D548249903F0F8
:1022A000A9F9059B012B40F3CC83059B052B40F33B
:1022B000AB83059B092B40F32584059B0D2B40F335
:1022C0003F84059B112B40F35984059B152B40F34C
:1022D0007384059B192B40F3F783C649249C68AF90
:1022E0000020A1F118033A4601E052F8044F53F8D8
:1022F00004CF7E2CD4BFE4B27F2444EA0C2499425C
:102300001C60F2D11E2801F1180100F0808257F8FC
:10231000184F0630E5E781F800C0A4E7C0F13000AF
:1023200085F8240088F8009036E7C0F130000023DB
:1023300085F8240088F800902A931BE7C0F130004C
:1023400085F8240088F8009003E7C0F130000023EE
:1023500085F8240088F800902393E8E6C0F1300067
:1023600085F8240088F80090D0E6C0F13000002302
:1023700085F8240088F800902293B5E6C0F130007B
:1023800085F8240088F800909CE6C0F13000002316
:1023900085F8240088F80090219380E6C0F1300091
:1023A00085F8240088F8009067E6C0F1300000232B
:1023B00085F8240088F8009020934BE6C0F13000A7
:1023C00085F8240088F8009032E6C0F13000002340
:1023D00085F8240088F800901F9316E6C0F13000BD
:1023E00085F8240088F8009099E5C0F130000023BA
:1023F00085F8240088F800901E937EE5C0F1300037
:1024000085F8240088F8009066E5C0F130000023CC
:1024100085F8240088F800901D934BE5C0F130004A
:1024200085F8240088F8009033E5C0F130000023DF
:1024300085F8240088F800901C9318E5C0F130005E
:1024400085F8240088F80090FFE4C0F130000023F4
:1024500085F8240088F800901B93E3E4C0F1300075
:1024600085F8240088F80090CAE4C0F13000002309
:1024700085F8240088F800901A93AEE4C0F130008B
:1024800085F8240088F8009095E4C0F1300000231E
:1024900085F8240088F80090299379E4C0F1300091
:1024A00085F8240088F80090FFF7FCBBC0F13000ED
:1024B000002385F8240088F800901993FFF7E0BB0B
:1024C000C0F1300085F8240088F80090FFF7C7BB02
:1024D000C0F13000002385F8240088F8009018939C
:1024E000FFF7ABBBC0F1300085F8240088F80090FE
:1024F000FFF792BBC0F13000002385F8240088F874
:1025000000901793FFF776BBC0F1300085F82400E8
:1025100088F80090FFF75CBBC0F13000002385F81D
:10252000240088F800901693FFF73FBBC0F13000FD
:1025300085F8240088F80090FFF725BBC0F1300033
:10254000002385F8240088F800901593FFF708BB56
:10255000C0F1300085F8240088F80090FFF7EEBA4B
:10256000C0F13000002385F8240088F800902893FB
:10257000FFF7D1BAC0F1300085F8240088F8009048
:10258000FFF754BAC0F13000002385F8240088F822
:1025900000901493FFF738BAC0F1300085F824009A
:1025A00088F80090FFF71FBAC0F13000002385F8CB
:1025B000240088F800901393FFF703BAC0F13000AD
:1025C00085F8240088F80090FFF7EAB9C0F13000E0
:1025D000002385F8240088F800901293FFF7CEB905
:1025E000C0F1300085F8240088F80090FFF7B4B9F6
:1025F0003CFB0010B00D0020C0F13000002385F836
:10260000240088F800901193FFF793B9C0F13000CF
:1026100085F8240088F80090FFF779B9C0F1300000
:10262000002385F8240088F800901093FFF75CB928
:10263000C0F1300085F8240088F80090FFF742B917
:10264000C0F13000002385F8240088F8009027931B
:10265000FFF725B9C0F1300085F8240088F8009014
:10266000FFF7AAB8C0F13000002385F8240088F8ED
:1026700000900F93FFF78EB8C0F1300085F824006A
:1026800088F80090FFF775B8C0F13000002385F896
:10269000240088F800900E93FFF759B8C0F130007D
:1026A00085F8240088F80090FFF740B8C0F13000AA
:1026B000002385F8240088F800900D93FFF724B8D4
:1026C000C0F1300085F8240088F80090FFF70AB8C0
:1026D000C0F13000002385F8240088F800900C93A6
:1026E000FEF7EABFC0F1300085F8240088F80090BA
:1026F000FEF7D0BFC0F13000002385F8240088F831
:1027000000900B93FEF7B3BFC0F1300085F82400B2
:1027100088F80090FEF799BFC0F13000002385F8DB
:10272000240088F800902693FEF77CBFC0F13000AB
:1027300085F8240088F80090FEF707BFC0F130004C
:10274000002385F8240088F800900A93FEF7EBBE7A
:10275000C0F1300085F8240088F80090FEF7D2BE62
:10276000C0F13000002385F8240088F80090099318
:10277000FEF7B6BEC0F1300085F8240088F800905E
:10278000FEF79DBEC0F13000002385F8240088F8D4
:1027900000900893FEF781BEC0F1300085F8240058
:1027A00088F80090FEF767BEC0F13000002385F87E
:1027B000240088F800900793FEF74ABEC0F130006D
:1027C00085F8240088F80090FEF730BEC0F1300094
:1027D000002385F8240088F800900693FEF713BEC6
:1027E000C0F1300085F8240088F80090FEF7F9BDAC
:1027F000C0F13000002385F8240088F8009025936C
:10280000FEF7DCBD01469E4802F0F4FE45E5059B5F
:102810001D2B40F0AD80FEF773F9FEF771F8994B70
:102820001B682BB901F0DCFE964B1B68002BF9D01E
:102830009548FEF78BF8944A94499548D2E90043AD
:102840009268C4F38356C2F38312C3F38357C4F36D
:102850008314C3F38313CDE900732492029205938A
:102860003246234602F042FFDFF824E2DFF854C28A
:10287000BEE80F00ACE80F00BEE80F00ACE80F00A8
:10288000BEE80F00ACE80F009EE80F008CE80F00D8
:1028900034A801F0FDFF0146002840F0AF81A642B8
:1028A00008DDBE4206DD059B9E4203DD249B9E4261
:1028B00000F3A881A64208DABC4206DD059B9C42D3
:1028C00003DD249B9C4200F3D481BC4208DABE4263
:1028D00006DA059B9F4203DD249B9F4200F3DE81C5
:1028E000059B9C4208DA059B9F4205DA9E4203DA6B
:1028F000249A934200F39B81249B9C4208DA249BF8
:102900009F4205DA059A9A4202DA9E42C0F2A481F9
:1029100034A801F0BDFF0146002840F06B815D49FD
:102920005D48902202F06EFD5C495D48902202F005
:1029300069FD5C495748902202F064FD5A495748A6
:10294000902202F05FFD59495648902202F05AFD4C
:1029500057495548902202F055FD564B162153F821
:10296000042F92B21A60544A9342F8D1FEF7C5BCC4
:10297000059B013305932A9B3393239B3293229B20
:102980003193219B3093209B2F931F9B2E931E9B53
:102990002D931D9B2C931C9B2B931B9B2A931A9B63
:1029A0002393299B2293199B2193189B2093179B78
:1029B0001F93169B1E93159B1D93289B1C93149B82
:1029C0001B93139B1A93129B1993119B1893109BA3
:1029D0001793279B16930F9B15930E9B14930D9B98
:1029E00013930C9B12930B9B1193269B10930A9BA2
:1029F0000F93099B0E93089B0D93079B0C93069BCB
:102A0000259C0B93FEF7C2BC2C49249C68AF002088
:102A1000A1F118033A4601E052F8044F53F804CFED
:102A20007E2CD4BFE4B27F2444EA0C248B421C6089
:102A3000F2D11E2801F118019AD057F8184F06302C
:102A4000E6E71F49249C68AF0020A1F118033A462D
:102A500001E052F8044F53F804CF7E2CD4BFE4B207
:102A60007F2444EA0C248B421C60F2D11E2801F121
:102A700018013FF47DAF57F8184F0630E5E700BF67
:102A800008FB00101C120020201200202CFB00105C
:102A9000701300204C0F00206C100020BC0E002092
:102AA000DC0F00202C0E00208C110020FC100020D8
:102AB0009C0D002068100020F8100020F00F00206E
:102AC00080100020B41300209249249C68AF00209D
:102AD000A1F118033A4601E052F8044F53F804CF2D
:102AE0007E2CD4BFE4B27F2444EA0C2499421C60BB
:102AF000F2D11E2801F118013FF43AAF57F8184FF0
:102B00000630E5E78449249C68AF0020A1F1180352
:102B10003A4601E052F8044F53F804CF7E2CD4BF5C
:102B2000E4B27F2444EA0C2499421C60F2D11E28AE
:102B300001F118013FF41CAF57F8184F0630E5E7D4
:102B40007649249C68AF0020A1F118033A4601E0C1
:102B500052F8044F53F804CF7E2CD4BFE4B27F2444
:102B600044EA0C2499421C60F2D11E2801F118019C
:102B70003FF4FEAE57F8184F0630E5E76849249C4D
:102B800068AF0020A1F118033A4601E052F8044F63
:102B900053F804CF7E2CD4BFE4B27F2444EA0C2443
:102BA00099421C60F2D11E2801F118013FF4E0AEF9
:102BB00057F8184F0630E5E75A49249C68AF0020C3
:102BC000A1F118033A4601E052F8044F53F804CF3C
:102BD0007E2CD4BFE4B27F2444EA0C2499421C60CA
:102BE000F2D11E2801F118013FF4C2AE57F8184F78
:102BF0000630E5E74C4802F0FDFC90E64A4802F05A
:102C0000F9FC4CE6DFF830E1DFF824C1BEE80F0044
:102C1000ACE80F00BEE80F00ACE80F00BEE80F0004
:102C2000ACE80F009EE80F008CE80F0042E6DFF8EA
:102C30000CE1DFF8FCC0BEE80F00ACE80F00BEE816
:102C40000F00ACE80F00BEE80F00ACE80F009EE8F4
:102C50000F008CE80F004FE6344E354C0FCE0FC4FA
:102C60000FCE0FC40FCE0FC496E80F0084E80F00FC
:102C70004EE6DFF8CCE0DFF8B8C0BEE80F00ACE805
:102C80000F00BEE80F00ACE80F00BEE80F00ACE894
:102C90000F009EE80F008CE80F0016E6DFF8A4E0B6
:102CA000DFF88CC0BEE80F00ACE80F00BEE80F00F4
:102CB000ACE80F00BEE80F00ACE80F009EE80F0084
:102CC0008CE80F000CE61B4802F094FCFEE7164867
:102CD00002F090FCFEF7CEBA134802F08BFCFEF730
:102CE00083BA114802F086FCFEF759BA0E4802F08A
:102CF00081FCFEF72FBA0C4802F07CFCFEF707BA05
:102D0000094802F077FCFEF7DFB9074802F072FCD1
:102D1000FEF77BB910110020600F0020D00E0020BC
:102D2000400E0020A011002008FB00102C130020F2
:102D3000B413002094F900102C120020EC12002093
:102D40006C120020AC12002008B50346014802F0C6
:102D500051FCFEE740FB0010022000F06BBF00BFFB
:102D6000002000F067BF00BF2DE9F041002096B0C1
:102D700000F018FC012000F015FC402000F012FCCF
:102D80002E4B022218684FF4E13101F019FD051EA7
:102D900046DB2B4AD2F8C03043F00F03C2F8C030F4
:102DA00000F01CF900283FD100F0B8F805460028D3
:102DB0003FD1244B244C4322DA600FCC0DF1280C78
:102DC000ACE80F0094E8030004F108038CE803006A
:102DD00093E8070001AE86E8070031462A460AA8B4
:102DE00000F030F904F1140EBEE80F000DF1400CB4
:102DF000ACE80F009EE8030004F12C088CE8030007
:102E000098E8070004AE383486E8070094E8070025
:102E100007AF87E807003A46314610A800F04EF9A0
:102E2000284616B0BDE8F08108490948B922FFF7E5
:102E30008BFF06490648BE22FFF786FF00000020F0
:102E40000080004000440040A4FB00105CFB001028
:102E50009CFB001000BF70474FF0FF30704700BF71
:102E60004FF0FF30704700BF4FF0FF30704700BF9A
:102E70004FF0FF30704700BFF8B5E0B9002A1746A1
:102E8000054615DD0F4E0C4602E00135AF4210D06D
:102E9000304601F0E9FCC1B22170304601F0E6FC99
:102EA000224614F8013B0D2BEFD10A231370681C46
:102EB000F8BD3846F8BD01F0C3FF092303604FF0A9
:102EC000FF30F8BD00200440F8B5431E012B1CD88C
:102ED000002A174617DD551E0F4E4C1E0D4404E008
:102EE000304601F0C3FCAC420DD014F8011F0A2992
:102EF000F6D10D21304601F0B9FC2178304601F0C1
:102F0000B5FCAC42F1D13846F8BD01F099FF092378
:102F100003604FF0FF30F8BD00200440F8B50D4BC2
:102F20001F68A7B100250C4C2E46D4E9000100F023
:102F30004FFE204600F032FD0135002818BF6FF02B
:102F40000706AF4204F10C04EFD13046F8BD3E460F
:102F50003046F8BD10FC0010F8FB00100B4B1B684E
:102F6000834210B504460BD9094B04EB440403EB30
:102F7000840253F824005168BDE8104000F040BEC0
:102F8000044905482E22FFF7DFFEEDE710FC001094
:102F9000F8FB001030FC00105CFC00100B4B1B68B1
:102FA000834210B504460BD9094B04EB440403EBF0
:102FB000840253F824005168BDE8104000F008BEB8
:102FC000044905483922FFF7BFFEEDE710FC001069
:102FD000F8FB001030FC00105CFC0010F8B5164B3C
:102FE0001F68FFB10024154D2646284600F0D6FC88
:102FF0000134002818BF6FF00706BC4205F10C052C
:10300000F3D10F4C206840B1002F14BF3A46012283
:10301000002102F091FA3046F8BD384601F03AFF3F
:103020002060F1E7064C26680EB13E46F3E73046D5
:1030300001F030FF2060EEE714FC001018FC0010D7
:10304000F413002030B448B31346164A164D0C460C
:1030500001681160154A41691160154A01691160E2
:10306000043007C885E8070074B194E80700114CE4
:1030700084E8070063B193E807000F4B83E807007B
:103080000024204630BC70470A4A1460002BF2D15D
:10309000094A1C462046136030BC70474FF0FF348D
:1030A000EFE700BF1C1400200414002020140020AF
:1030B0002414002010140020F813002010B4B9B11B
:1030C000B0B1134607C90C4C84E807004BB193E834
:1030D00007000A4B83E80700002420465DF8044BF4
:1030E0007047064A1C46204613605DF8044B704743
:1030F0004FF0FF34F1E700BF341400202814002003
:10310000474885464748804780B94749474A484B22
:103110009B1A03DD043BC858D050FBDC4549464AA6
:1031200000209142BCBF41F8040BFAE743488047B6
:103130004348804743488047FFF7FEFFFEE7FEE72E
:10314000FEE7FEE7FEE7FEE7FEE7FEE7FEE7FEE757
:10315000FEE7FEE7FEE7FEE7FEE7FEE7FEE7FEE747
:10316000FEE7FEE7FEE7FEE7FEE7FEE7FEE7FEE737
:10317000FEE7FEE7FEE7FEE7FEE7FEE7FEE7FEE727
:10318000FEE7FEE7FEE7FEE7FEE7FEE7FEE7FEE717
:10319000FEE7FEE7FEE7FEE7FEE7FEE7FEE7FEE707
:1031A000FEE7FEE7FEE7FEE7FEE7FEE7FEE7FEE7F7
:1031B000FEE7FEE7FEE7FEE7FEE7FEE7FEE7FEE7E7
:1031C000FEE7FEE7FEE7FEE7FEE7FEE7FEE7FEE7D7
:1031D000FEE7FEE7FEE7FEE7FEE7FEE7FEE7FEE7C7
:1031E000FEE7FEE7FEE7FEE7FEE7FEE7FEE7FEE7B7
:1031F000FEE7FEE7FEE7FEE7FEE7FEE7FEE7FEE7A7
:10320000FEE7FEE7FEE7FEE7FEE7FEE7FEE7FEE796
:10321000FEE7FEE7FEE7FEE7FEE7FEE7FEE7FEE786
:1032200000000220FD320010780201100000002092
:10323000240A0020000C0020D81D002005330010B7
:103240004D4E0010510D00100B4A08B50346106892
:1032500028B10A4903448B4207D8136008BD0848C7
:103260000649106003448B42F7D901F0E9FD0C23B5
:1032700003604FF0FF3008BD4014002000F0012033
:10328000E01D00206FF01000704700BF6FF01000CD
:10329000704700BF4FF080439A6802F46062B2F555
:1032A000206F20D010D8CAB1104B47F23051B2F580
:1032B000C06F08BF0B464FF080420D499268C2F3C1
:1032C0008212D3400B607047B2F5406F08D0074BB5
:1032D0000849B2F5606F08BF0B46ECE7064BEAE71A
:1032E0004FF40043E7E74FF4E103E4E700E1F505BD
:1032F000D81D0020C0687804008793030020704721
:10330000704700BF10B50B4C0B4BA3600B4801F08E
:103310004DF9D4F8883043F47003C4F88830BFF313
:103320004F8FBFF36F8FFFF7B5FFFFF7E9FFFFF791
:103330001BFD10BD00ED00E00000001000A00240E9
:1033400038B54FF0E02318499C691A6922F480329D
:103350000A601A69D20723D46FF07F4405225C61AA
:103360004FF080759C611A61104B114A1968002357
:10337000A0FB01010AF00CFA0E4BB0FBF5F205FBC5
:10338000120084421A6007D81A6801321A602C446D
:10339000094B201A186038BD074B201A186038BD39
:1033A0005D690135E0E700BF48140020D81D00200A
:1033B00040420F00040000204C14002010B50C4CBB
:1033C0000C4B22681960002A0FDC08B9002010BDE0
:1033D000FFF7B6FF2368002BF8DD4FF0E022002056
:1033E000136943F00203136110BD6FF0050010BDB7
:1033F0000400002044140020F8B5174C2368002B6B
:103400001EDB26682EBB154B4FF0E0251B68AA6912
:103410009A421ED8124F3B685BB16FF00F0098477D
:10342000104B3E601A682A614FF0FF332360002082
:10343000F8BD0C4A4FF0FF3312682A612360F6E7AB
:10344000074C2368002BF2D0002098470020206012
:10345000F8BD6FF00500F8BD040000204C140020FA
:10346000441400204814002010B5094C236823B1EF
:103470006FF00F00984700232360064A064B106840
:103480004FF0E0214FF0FF3208611A6010BD00BF1D
:1034900044140020481400200400002038B5184CC3
:1034A0002268002A29DC00B938BDFFF749FF4FF038
:1034B000E02202E01369DB031BD42368002BF9DC54
:1034C000104B1A684FF0E0218B699342FCD80E4DE7
:1034D0002B6823B16FF00F00984700232B600B4B34
:1034E0004FF0E022196811614FF0FF330020236094
:1034F00038BD2368013B2360DFE76FF0050038BD6E
:10350000040000204C140020441400204814002023
:10351000F8B50F4E0F4BB2689A4204460D4600F1C3
:10352000100707D018460C494FF4F07201F06AFFFB
:103530000346B060002C43F8275008DB074B6209B4
:10354000012004F01F0400FA04F443F82240F8BDFF
:1035500000ED00E0001600200000001000E100E097
:103560003F2809D90E4A4038D168C0B2012303FA76
:1035700000F00843D06070471F284FF0804208D900
:103580002038916CC0B2012303FA00F00843906424
:103590007047516A012303FA00F0084350627047F4
:1035A000000008403F280AD910494038CB68C0B213
:1035B000012202FA00F023EA0000C86070471F28C9
:1035C0004FF0804109D920388B6CC0B2012202FA39
:1035D00000F023EA0000886470474B6A012202FA77
:1035E00000F023EA00004862704700BF0000084076
:1035F00010B507280AD8DFE800F00C090923334783
:103600005B04BDE81040364800F0C8B96FF0020016
:1036100010BD4FF080440021A36843F48023A360D1
:103620004FF47A70FFF7CAFE03E0FFF7E5FE0630BD
:1036300052D1A3685901F8D5FFF716FF002010BD3D
:1036400000214FF47A70FFF7B9FE4FF0804403E099
:10365000FFF7D2FE06303FD1A3689A00ECD4F7E71B
:103660004FF080440021A36843F40023A3604FF48B
:103670007A70FFF7A3FE03E0FFF7BEFE06302BD102
:10368000A3681B01F8D5D7E74FF080440021A36859
:1036900043F48013A3604FF47A70FFF78FFE03E0CA
:1036A000FFF7AAFE063017D1A368D800C4D4F7E705
:1036B0004FF080440021A36843F40033A3604FF42B
:1036C0007A70FFF77BFE03E0FFF796FE063003D12A
:1036D000A3689B01B0D4F7E76FF0090010BD00BFED
:1036E0006CFC001038B54FF080439D68072824D843
:1036F000DFE800F0262323333C4B5A045D4800F0FA
:103700004DF9C8B94FF08042936843F46063936009
:1037100000214FF47A70FFF751FE4FF0804403E030
:10372000FFF76AFE06304ED1A3689B04F8D5FFF779
:103730009BFEFFF7AFFD002038BD6FF0020038BDE3
:103740004FF08044A16811F4802146D04FF08042B0
:10375000936823F460639360DAE74FF080429368E4
:1037600023F4606343F4C0639360D1E74FF0804477
:10377000A16811F4002169D04FF08042936823F4CE
:10378000606343F400639360C2E74FF08044A16834
:1037900011F4801147D04FF08042936823F46063A6
:1037A00043F420639360B3E74FF08044A16811F4C1
:1037B000003125D04FF08042936823F4606343F4D6
:1037C00040639360A4E7A36805F4606523F4606335
:1037D0002B43A3606FF0090038BDA36843F4802336
:1037E000A3604FF47A70FFF7E9FD03E0FFF704FEF2
:1037F0000630EFD1A3685801F8D5FFF735FEA5E7ED
:10380000A36843F40033A3604FF47A70FFF7D6FD4A
:1038100003E0FFF7F1FD0630DCD1A3689A01F8D58B
:10382000FFF722FEC6E7A36843F48013A3604FF4BA
:103830007A70FFF7C3FD03E0FFF7DEFD0630C9D164
:10384000A368D900F8D5FFF70FFEA4E7A36843F4F7
:103850000023A3604FF47A70FFF7B0FD03E0FFF799
:10386000CBFD0630B6D1A3681B01F8D5FFF7FCFDF0
:1038700082E700BF6CFC00103F280AD94038114A8B
:10388000C0B2012303FA00F0906093681842FCD1A3
:1038900070471F280BD92038C0B201234FF0804257
:1038A00003FA00F05064536C1842FCD170470123B6
:1038B0004FF0804203FA00F0506053681842FCD188
:1038C000704700BF00000840014800F005B800BF85
:1038D0000080024000F01EB808B50A4B98420BD099
:1038E00009490A487222FFF72FFA094B4FF0FF31BE
:1038F000002243F8212008BD054B0021002243F897
:10390000212008BD00800240CCFC001010FD0010FA
:10391000E01700200F2870B516D800EB80000D4E80
:103920008400335983B10C48012101F019FA05468E
:1039300068B933193051DB6807481D605A685A600E
:1039400001F01CFA284670BD6FF00205FAE76FF02F
:103950000505F7E7E8170020E4170020C10710B5B8
:10396000044608D4A2070BD463070ED42046BDE852
:10397000104001F009BA0020FFF714FEA207F3D5AA
:103980000120FFF70FFE6307F0D54020FFF70AFE86
:103990002046BDE8104001F0F7B900BFF8B5894BEB
:1039A00005689D42044638D003F580539D4212D0ED
:1039B00003F5EE2303F580639D423CD003F50073CD
:1039C0009D423AD00020FFF7C9FF01F033FA0128E9
:1039D00008D10020F8BD0220FFF7C0FF01F02AFA4D
:1039E0000128F6D06268A17A284600F047F900283D
:1039F000F0D1754B22689A4211D06268217A28462C
:103A000000F05CF90028E5D1637A042B00F2D6803F
:103A1000DFE803F0554D3D351E000120D3E7237A42
:103A2000012B00F0BD80022B54D0002B00F0A080B1
:103A30006FF01000F8BD0420C5E70820FFF78EFFE7
:103A400001F0F8F90128C4D0A37A002BD1D1EFE717
:103A50002A6E636822EA03022A666A6E1A436A665D
:103A6000D5F8B8201343C5F8B830237A002BB0D06E
:103A70006268E17A2846BDE8F84000F05DB92A6E38
:103A800063681A432A666A6E22EA0302E7E72B6E2E
:103A9000626823EA02032B666B6E13436B66D5F8EC
:103AA000B83023EA0203C5F8B830237ADEE72B6E7C
:103AB000626813432B666B6E23EA0203EEE72A6EFD
:103AC000616822EA01022A666B6E23EA01036B66D3
:103AD000237ACBE762683D484FEA420C1101066A3F
:103AE0000CF0020C01F0200141EA0C0131430162AB
:103AF0008168C2F3400242EA0C020A438260627AA1
:103B0000042A95D8DFE802F0271C031C0300626832
:103B10002E48D100066A01F0100102F0010C41EAC2
:103B20000C0126EA010101629100520101F0040139
:103B300002F040020A43016A21EA0202026295E7AA
:103B400022486268076AD10002F0010601F0100104
:103B50003E433143E7E761681C488A004901066A31
:103B600002F0040201F040010A43324302627DE7A1
:103B7000626816484FEA420C1101066A0CF0020C0A
:103B800001F0200141EA0C0126EA0101016281688D
:103B9000C2F3400242EA0C0221EA02028260AEE76E
:103BA00062680A484FEA420C1101066A0CF0020CE6
:103BB00001F0200141EA0C013143E7E76FF0020018
:103BC000F8BD00BF0080004000060840006C0040C7
:103BD000094A904201D000F049B8084810B4046A7C
:103BE000CA0001F00101214302F0100319435DF8FE
:103BF000044B0162704700BF00060840006C0040A3
:103C00000A4A904201D000F033B810B4084C0B4679
:103C1000C900206A01F0100203F00101114320EAFB
:103C2000010121625DF8044B704700BF00060840A7
:103C3000006C004001F0BAB8034A904201D000F095
:103C400019B8024AD1617047000608400068004078
:103C5000034B984201D000F00FB8024BD86970476F
:103C6000000608400068004001F0E4B8C1617047F8
:103C70000162704781647047006C704770B50546FB
:103C80000C461646FFF7F0FF012814D05CB1012C5A
:103C900002D06FF0020070BDD5F8C0203243002082
:103CA000C5F8C02070BDD5F8C02022EA0602204623
:103CB000C5F8C02070BD002070BD00BF70B50446BF
:103CC0000E461546FFF7D0FF01280AD0236B2B4381
:103CD00023636560052E2CD8DFE806F00C14161D52
:103CE0002405002070BDC4F888500020A567E56653
:103CF000A56070BD6561656000202567E567C4F853
:103D0000885070BD2561F6E7C4F888500020E5674B
:103D10002567A56070BDC4F888500020E567E5669A
:103D2000A56070BDC4F888500020A5672567A56010
:103D300070BD6FF0020070BD70B504460D461646AA
:103D4000FFF792FF012810D0032D37D8DFE805F0E8
:103D50001B02290FD4F8B0303343C4F8B030D4F884
:103D6000B42022EA0606C4F8B460002070BDD4F87E
:103D7000B0303343C4F8B030D4F8B4201643C4F89C
:103D8000B460002070BDD4F8B03023EA0603C4F854
:103D9000B030D4F8B42022EA0606C4F8B46000209B
:103DA00070BDD4F8B03023EA0603C4F8B030D4F8BC
:103DB000B4201643C4F8B460002070BDD4F8B0300D
:103DC00023EA0603C4F8B030D4F8B43023EA060678
:103DD000C4F8B460C9E700BF0AB900F021B96FF0B8
:103DE00010007047174B984210B5044610D0164B80
:103DF000984218D0154B984220D13820FFF7B0FBDD
:103E00003420FFF739FD2046BDE8104000F026B908
:103E10000D20FFF7A5FB1020FFF72EFD2046BDE883
:103E2000104000F01BB91C20FFF79AFB2020FFF781
:103E300023FD2046BDE8104000F010B96FF00100EE
:103E400010BD00BF00D0014000E0014000F0014083
:103E5000C0B370B504460D461646FFF7C3FF1B4BB3
:103E60009C4212D01A4B9C421CD01A4B9C4226D129
:103E70003820FFF797FB1848FFF790FD3246294698
:103E80002046BDE8704000F049B80D20FFF78AFBDE
:103E90001248FFF783FD324629462046BDE87040B0
:103EA00000F03CB81C20FFF77DFB0D48FFF776FDC6
:103EB000324629462046BDE8704000F02FB86FF02A
:103EC000010070BD4FF0FF30704700BF00D00140CF
:103ED00000E0014000F0014090FC001078FC001070
:103EE00084FC001000F010B900F06EB900F088B941
:103EF00000F098B900F0A4B900F0BAB900F0D0B958
:103F000000F0D6B900F0DCB900F04ABA00F0DCB934
:103F100000F04CBA00F028BB00F036BB2DE9F041B0
:103F2000002871D03A4B984288461646044649D03C
:103F300003F58053984243D0364FB8420CBF022756
:103F40004FF0FF3710212046FFF7E0FF054600281D
:103F500033D1236843F0010323602046FFF7CEFFEF
:103F60002046FFF7CDFF02212046FFF7D5FF0621AF
:103F70002046FFF7CFFFB8F1000F27D02368244A6F
:103F800043F002039442236039D0234B9C421BD060
:103F9000204884420CBF02244FF0FF341F4B03EB38
:103FA00044140122626003EB47136FF00101C3E97F
:103FB000021100221A611A765A612846BDE8F08182
:103FC0000127BFE70027BDE70124E7E73146424666
:103FD0002046FFF701FF0E4B9C420AD003F58053A9
:103FE0009C420ED00B498C420CBF4FF002084FF0A0
:103FF000FF380A4B03EB481100224A60D3E72C46F6
:10400000CCE74FF00108F4E74FF0FF35D5E700BFEC
:1040100000D0014000F0014000E0014028190020DC
:10402000C0B1032A10D8B1F5806F10D200EB820224
:1040300000237F29D36484BF4FF40043D364D36C3F
:1040400019430020D16470476FF0100070476FF083
:10405000020070474FF0FF30704700BF00284AD081
:10406000F8B5264B9842044639D003F58053984260
:1040700023D0234DA8420CBF02254FF0FF3500216D
:104080002160E1606161A3681E4EA3602369236122
:104090006F0106EB4515E16120222162284661622D
:1040A000A16201F049FA2046FFF728FF2046FFF7FA
:1040B00027FF2B7E1BB90020F8BD0125DFE7FFF7A6
:1040C00003FCA86800280CDA3E44F0680028F2DB04
:1040D000FFF700FC6FF00103F3600020F8BD00253E
:1040E000CDE73E44FFF7F6FBF0686FF001030028D0
:1040F000AB60E0DBECE74FF0FF30704700D00140F1
:1041000000F001402819002000284FD010B4294A9F
:10411000A1F574236FF41074234493421AD3264BF1
:1041200099423ED8254B1B685B08B3FBF1F14A0866
:1041300011F0010F02F1FF3408BF2246B2F5007FF3
:104140002FD274B3C4F3080444635DF8044B826354
:10415000FFF7CABE194B1A4A1B685B08B3FBF1F1A3
:104160004FEA410CA2FB0C4CA2FB01425208C907CA
:1041700058BF02F1FF324FEA5C0C0F2A0CF1FF3CF2
:104180000FDCBCF10F0F0CDC12025FFA8CFC92B258
:104190004CEA0202C26302680A4942F40042026029
:1041A000C3E76FF002005DF8044B70474FF0FF303B
:1041B000704700BF009F240040E13300D81D00205D
:1041C000ABAAAAAA801A060003681B040CD5C26B0E
:1041D000C36BD0B20230C3F307230344074A10680D
:1041E0004008B0FBF3F07047436B806BC3F30803E8
:1041F000C0F3080003440233F0E700BFD81D0020DD
:10420000034658B1006B1A6B10F0010016BF42F064
:10421000020242F0010200201A6370474FF0FF30A3
:10422000704700BF48B1036B43F004030363036BA3
:1042300013F00403FBD1184670474FF0FF3070476E
:1042400098B191B17AB1002301F1FF3C06E0C16A57
:104250000133C9B29A420CF8031004D041688907AF
:10426000F5D518467047104670474FF0FF3070473D
:1042700098B191B17AB1002301F1FF3C06E001331E
:104280009A421CF80310C9B2C16204D04168C90641
:10429000F5D518467047104670474FF0FF3070470D
:1042A000C36943F08003C361C3691B06FCD4704734
:1042B000436A43F080034362436A1B06FCD47047A1
:1042C00081600261704700BF002865D0036843F039
:1042D00001032DE9F04103600768036843F480633C
:1042E0000E46044607F480670360002943D000258A
:1042F0002BE0FFF7D3F8236823F0800323600A2024
:10430000FFF7CCF8236813F400784FF00A002BD1A4
:10431000FFF7C4F8236843F0800323600A20FFF707
:10432000BDF823689A054FF00A001DD5FFF7B6F8CF
:10433000236843F0400323600A20FFF7AFF82368A7
:10434000DB0525D40135AE4215D00A20FFF7A6F8CB
:10435000236823F0400323600A20FFF79FF82368B7
:10436000D9054FF00A00C4D52368013543F0C003D6
:10437000AE422360E9D16FF008001FB9236823F42F
:1043800080632360236823F001032360BDE8F0818C
:104390004046002FF6D1F1E74FF0FF30704700BFE5
:1043A000036C89B219430164704700BF2DE9F041E5
:1043B000D0E900437F2B00F2D1806A4B9C42054636
:1043C00008D003F580539C4204D003F580539C42EF
:1043D00040F0BE8023689E0740F1BD8007226FF049
:1043E0007F412046FFF78EFD2046FFF789FD2046DE
:1043F000FFF784FD6A690023E360636142BBEA68FA
:104400006B685B00E362236B43F0010300262363C8
:10441000202704E0A36813F4FE4F11D1EA68964206
:1044200019D2A3689806F5D5A968921B3144204695
:10443000FFF762FDA760A36813F4FE4F0644EDD0BA
:10444000EE602046FFF754FD6FF00800BDE8F081F4
:10445000EA68002AD4D1002211212046FFF752FD3C
:104460006B69002B55D0B3F5807F88BF0023236292
:104470002046FFF73BFD266B16F00206FBD16B686A
:104480006A695B0043F00103E362002A41D0102710
:104490004FF00108A36813F0110F24D1A36813F49F
:1044A000FE4F2CD1A3686A69D90730D5B24230D902
:1044B000236A13F4706FC3F30321EBD1931BB3F59D
:1044C000807F94BF236221626B68216B5B0043F0A5
:1044D000010341F002012163C4F80880E362A3688C
:1044E00013F0110FDAD02969921B31442046FFF7EF
:1044F00001FDA760A36813F4FE4F0644D2D06E619D
:104500002046FFF7F5FC6FF00800BDE8F081B242ED
:10451000C0D8AB698BB1236B43F002032363A3685C
:10452000DB07FCD54123A360A36813F4FE4F0CBF47
:1045300000206FF00800BDE8F081236B43F0040316
:104540002363236B5A07FCD5A368DB07E7D5E9E7AC
:104550006FF00200EFE76FF00600ECE76FF010007D
:10456000E9E700BF00D001408269D2B28A42034627
:1045700007D3C26922F4706242EA01210020D961A6
:1045800070476FF0020070478269C2F307228A42C7
:10459000034607D3426A22F4706242EA01210020F6
:1045A000596270476FF00200704700BF00F000B81A
:1045B000D0F80031012223F00103C0F80031C0F827
:1045C0000027D0F80031DA03FBD5D0F8003143F0F2
:1045D0000103C0F80031D0F80031DB03FBD5704790
:1045E000074B08494FF0FF325A60DA605A61DA61CE
:1045F0001A630B6923F004030B6130BF704700BFDF
:104600000068004000ED00E008B5174B984210D05C
:10461000164B984215D0164B98421AD0154B98421B
:104620001FD14420FFF728F94420FEF799FF00200E
:1046300008BD0B20FFF720F90920FEF791FF0020AD
:1046400008BD0C20FFF718F90A20FEF789FF0020AB
:1046500008BD1C20FFF710F92120FEF781FF002084
:1046600008BD6FF0020008BD002004400030044087
:104670000040044000140840214B10B504469C4201
:10468000084629D003F580539C4225D003F580537A
:104690009C4221D003F575339C4222D10523042A84
:1046A000636121D12368B0F5166F43F400132360D2
:1046B0008CBF0023012363614FF480310246204602
:1046C00000F072F9002806DD236843F400432360FC
:1046D00023681B03FCD510BD052363615AB1022A70
:1046E00006D06FF0020010BDFBD822B1022AF8D12B
:1046F0004FF4E101E2E7034B19684908DEE700BF28
:1047000000200440D81D002000F05CB900F06AB918
:1047100000F07CB9164B984210B5044612D003F550
:10472000805398420ED003F5805398420AD003F587
:104730007533984203D1022907D0042910D06FF0B5
:10474000020010BD39B10229F9D10520FEF750FF52
:1047500002210028F5D12046BDE8104000F0A0B9A4
:104760000620FEF745FF03210028F4D0E9E700BF4B
:104770000020044010B5044600F0E6F90F4B9C42BF
:104780000DD003F580539C4209D003F580539C4221
:1047900005D003F575339C4208D0FD2010BD0028DC
:1047A000FCD0022814BFF920022010BD0228F5D049
:1047B000032814BFF920042010BD00BF00200440CE
:1047C00070B504460E461546FFF71EFF10BB1C4B86
:1047D0009C4227D01B4B9C421DD01B4B9C4228D097
:1047E0001A4B9C4214D11A48FFF7D8F84420FEF720
:1047F000D9FE29462046FFF78DFF58B92046FFF71E
:10480000B9FF314602462046BDE8704000F05CB872
:104810006FF0020070BD0F48FFF7C0F80A20FEF7E6
:10482000C1FEE6E70C48FFF7B9F80920FEF7BAFE2B
:10483000DFE70A48FFF7B2F82120FEF7B3FED8E71A
:1048400000200440003004400040044000140840B0
:10485000C0FC0010A8FC00109CFC0010B4FC001070
:1048600000F076B900F07CB900F014B800F01EB882
:1048700000F080B900F094B900F096B900F0AAB940
:1048800000F0AEB900F0BAB900F0BAB900F0BCB9A6
:1048900000F0C2B910B504462046FFF7EBFF002830
:1048A000FAD02046BDE81040FFF7DABF38B504461D
:1048B0000D462046FFF7E2FF0028FAD029462046A1
:1048C000BDE83840FFF7CEBFF8B5324CA0420546F0
:1048D0000F4616460FD0304B98420CD003F580534C
:1048E000984208D003F57533984204D02B492C48E0
:1048F0008622FEF729FA01212846FFF7C1FF044668
:1049000008B12046F8BD08212846FFF7FDFE044601
:104910000028F6D101462846FFF7FAFE0446002893
:10492000EFD101462846FFF7F1FE04460028E8D102
:10493000324639462846FFF79FFE002821DB154BFB
:104940009D4220D003F580539D421ED003F5805335
:104950009D421CD003F575339D420CBF03234FF0DD
:10496000FF33104803EB430300EBC3024FF0FF316A
:10497000DB00C2E902110021C15051601174516184
:10498000BFE70446BDE72346EBE70123E9E702233F
:10499000E7E700BF002004400030044020FD001085
:1049A00068FD0010080000209142B1FBF2F304D32F
:1049B00002FB1311B1EB520F00D901330361104612
:1049C000704700BF05390329024607D8036823F45E
:1049D000406343EA81210020116070476FF00200BC
:1049E000704700BF61B1012906D10368002143F47B
:1049F00080530360084670476FF002010846704715
:104A0000036823F480530360084670470346042973
:104A100042D8DFE801F0111725330300026842F0A5
:104A200010021A601A6842F020021A601A6842F0F6
:104A3000400200201A607047026822F01002002035
:104A40001A607047026842F010021A601A6822F079
:104A500020021A601A6822F0400200201A60704793
:104A6000026842F010021A601A6822F020021A60EE
:104A70001A6842F0400200201A607047026842F053
:104A800010021A601A6842F020021A601A6822F0B6
:104A9000400200201A6070476FF00200704700BFAC
:104AA000032938B50D46044630D8234B9C4236D0F6
:104AB00003F580539C4227D003F580539C4238D0A5
:104AC00003F575339C420CBF03234FF0FF331B4AA1
:104AD000D35CBBB9236813F4004F4FEA0545236844
:104AE0001FD023F400432360236805F4403523F4EA
:104AF00040331D432560236843F40043236023684B
:104B00001B03FCD5002038BD0123E0E70C490D480C
:104B100040F23312FEF718F9074B9C42C8D100232C
:104B2000D5E723F4403305F440351D4325600020CC
:104B300038BD0223CBE700BF0020044088190020C5
:104B400020FD001098FD00100068C0F30140704780
:104B50004368DB0654BF006A6FF00C00704700BF6B
:104B6000436813F0800306BF016218466FF00B0024
:104B7000704700BF8AB110B40139002305E001334A
:104B8000046A01F8014F9A4203D04468E406F6D55E
:104B90001A4610465DF8044B70471046704700BF38
:104BA0004068C0F3032070478AB110B40139002374
:104BB00005E0013311F8014F04629A4203D04468C2
:104BC0002406F6D51A4610465DF8044B7047104689
:104BD000704700BF4068C0F30330C0F10800704761
:104BE0004B1E072B024606D8036823F00F03194318
:104BF0000020116070476FF002007047C068704776
:104C0000C1600020704700BF8268034622EA0101AC
:104C100000209960704700BF10B5504B04460068F3
:104C200098420CD003F58053984208D003F5805386
:104C3000984204D003F57533984240F08B804FF0D2
:104C4000FF31FFF723FE20684FF0FF31FFF71CFE16
:104C500022690023C4E90533002A41D1E368002B0F
:104C60003CD06368002B75D02068FFF707FE6169B0
:104C7000E3685A1A824228BF0246D4E90003194465
:104C8000FFF7FAFD6269E36810449842606123D23D
:104C9000206802E043685A0605D4FFF7F3FD10F0E0
:104CA000400F2068F6D0FFF7E9FD6169E3685A1A02
:104CB0006368824228BF024619442068FFF7DCFD82
:104CC000636902461344636120684021FFF7DCFDFD
:104CD0006269E3689A42DBD323693BB9002010BDC7
:104CE000A368002B36D0E368002BBAD12068FFF709
:104CF000C1FDA16923695A1AA368824228BF0246EE
:104D000019442068FFF7B4FDA26923691044984252
:104D1000A061E3D22068FFF7B5FDC306FAD520688D
:104D2000FFF7A8FDA16923695A1AA368824228BF28
:104D3000024619442068FFF79BFDA369024613440D
:104D4000A36120681021FFF79FFDA26923699A42A1
:104D5000E0D3C3E76FF0020010BD00BF00200440A5
:104D600050E8003F3BB940E80013002BF8D1BFF3F7
:104D70005F8F184670476FF005007047BFF35F8F75
:104D800000230360704700BF10B5064C217831B98D
:104D900005484FF4007200F0CFFB01232370002080
:104DA00010BD00BF8D1D00208C190020032870B598
:104DB000054625D8E0B9174E3046FEF749FF0446B0
:104DC00001463046FEF738FF8CB1134E134B06EB0D
:104DD000C51603EBC515E30703D52B680BB1306887
:104DE0009847640806F1040605F10405F3D170BD87
:104DF00001280CD00A4E0B4B022818BF1E46DBE7D9
:104E000009490A484E22FDF79FFF0026D4E7084EC5
:104E1000D2E700BF008000408C1B00208C190020CE
:104E20000004084000060840C0FD001008FE001005
:104E300000900040014B1878704700BF8C1D002087
:104E4000014B1868704700BF6800002070B50D4E18
:104E50000D4D761BB61006D0002455F8043B0134E6
:104E60009847A642F9D1094E094D761B0BF0ECF993
:104E7000B61006D0002455F8043B01349847A642EA
:104E8000F9D170BD180A0020180A0020200A00205D
:104E9000180A0020024B0146186800F003B800BF52
:104EA000680000202DE9F04F01F10B06162E83B0AB
:104EB000044624D8102900F2BA8000F08FFB102697
:104EC00018220220B54F3A44A2F1080153688B42E0
:104ED00000F0BA805A68D96822F003021A449D682B
:104EE000E9608D60516841F001012046516003F195
:104EF000080500F079FB284603B0BDE8F08F36F0D6
:104F0000070600F19480B14200F2918000F066FB48
:104F1000B6F5FC7FC0F09A81730A00F08F80042BF5
:104F200000F26F81B30903F1390003F1380CC300BB
:104F30009A4F3B44A3F108055B689D4206D10CE003
:104F4000002980F22781DB689D4206D05A6822F052
:104F50000302911B0F29F3DD60463D69DFF850C263
:104F600065457CD06A6822F00302931B0F2B00F387
:104F70007B81002BC7E904CC80F26C81B2F5007F05
:104F800080F01A81D308796801334FEA521E01225A
:104F900002FA0EF20A4357F833E0C5F808E007EBCF
:104FA000C3010839E9607A6047F83350CEF80C50F5
:104FB000831001219940914257D8114206D120F027
:104FC00003004900114200F10400FAD007EBC009C8
:104FD0004D468646D5F80C80454508D11DE1002B8D
:104FE00080F22481D8F80C80454500F01681D8F86D
:104FF000042022F00302931B0F2BF0DD2046D8E99A
:10500000025408EB060146F00106C8F80460EC60A3
:10501000A56043F00104C7E90411C1E902CC4C606A
:1050200048F8023000F0E0FA08F1080502E00C232D
:1050300023600025284603B0BDE8F08F4FF40073CD
:1050400040204FF03F0C73E7D3689A4208BF02300C
:105050007FF440AF3D69DFF858C1654582D17A6879
:105060008310012199409142A7D9BD686B6823F054
:1050700003094E4503D8A9EB06030F2B7ADCDFF8B2
:1050800034B1474BDBF800201B680132334405EB99
:10509000090A00F0338103F580530F3323F47F684E
:1050A00028F00F084146204600F00EFB411C024646
:1050B00000F0F380824500F2EE803A4B19684144DB
:1050C0001960084600F04E81DBF8001001930131B1
:1050D0001BBFA2EB0A0A5044CBF80020186012F064
:1050E000070B00F01781CBF108010A44CBF5805182
:1050F00090440831A1EB0801C1F30B0A5146204648
:10510000009200F0E1FA421CDDE9002300F04F813B
:10511000801A00EB0A081968BA6048F0010051448F
:10512000BD425060196000F02981B9F10F0F40F2C3
:1051300027816868A9F10C0C2CF0070C00F0010025
:1051400040EA0C0068604FF0050E05EB0C00BCF166
:105150000F0FC0E901EE00F2328150681546124B84
:105160001A688A4238BF1960104B1A688A4238BFE1
:10517000196094E0AA1943F0010346F001066E603D
:105180002046BA60536000F02FFA0835284603B075
:10519000BDE8F08FD9681A44A1E600BF980400204A
:1051A000C01D0020901D0020B81D0020BC1D002047
:1051B000A0040020A0080020B2F5206F4FEA52237F
:1051C00063D3142B00F2B78003F15C01C9005B3399
:1051D00007EB010E7958AEF1080E8E4500F0918074
:1051E0004B6823F00303934202D989688E45F7D1B7
:1051F000D1F80CE07A68C5E9021ECEF80850CD60FF
:10520000D6E6142B59D9542B00F29D80330B03F1B1
:105210006F0003F16E0CC3008AE60EF1010E1EF062
:10522000030F05F108057FF4D5AE51E04244454631
:105230005368D8F80C1043F00103536055F8083F49
:105240002046D9608B6000F0CFF9F3E6F00806F154
:10525000080237E62A442046536843F001035360AE
:10526000083500F0C1F9E5E6A919204646F0010627
:1052700043F001046E60C7E90411C1E902CC4C603F
:10528000AB5000F0B1F90835D4E6930903F13901C8
:10529000C90038339CE7BD425FD0BD68686820F024
:1052A00003084645A8EB060302D80F2B3FF762AF71
:1052B000204600F099F90025BCE603F15C0003F1FB
:1052C0005B0CC30034E659F808394B4540F0968032
:1052D00010F0030F00F1FF30F5D17B6823EA0103E2
:1052E0007B60490099423FF6C0AE19B9BDE649005E
:1052F0000EF1040E1942FAD0704667E603F1100869
:10530000D0E69A104FF001087B6808FA02F21A43BF
:105310007A6070E702EB08014942C1F30B0A51467B
:105320002046009200F0D0F9431CDDE900237FF411
:10533000EFAEDA46EFE6542B25D8130B03F16F01DD
:10534000C9006E3344E7B3F5AA7F25D8F30B03F108
:10535000780003F1770CC300EAE5294B1868404454
:105360001860B1E6CAF30B0CBCF1000F7FF4ACAED1
:10537000BD68C84448F001006860F0E61546EEE6F6
:105380000123536094E7B3F5AA7F23D8D30B03F12D
:105390007801C90077331BE740F25452934223D877
:1053A000B30C03F17D0003F17C0CC300C0E5ABF14D
:1053B000080BD844A8EB02084FF0000AABE605F151
:1053C00008012046009305F001F8BD68009B68685D
:1053D0001968C4E640F254518B420BD8930C03F188
:1053E0007D01C9007C33F3E64FF47E737F204FF0DC
:1053F0007E0C9DE54FF47E717E23E9E67B6870E7C5
:10540000901D0020844641EA000313F003036DD190
:10541000403A41D351F8043B40F8043B51F8043B77
:1054200040F8043B51F8043B40F8043B51F8043B7E
:1054300040F8043B51F8043B40F8043B51F8043B6E
:1054400040F8043B51F8043B40F8043B51F8043B5E
:1054500040F8043B51F8043B40F8043B51F8043B4E
:1054600040F8043B51F8043B40F8043B51F8043B3E
:1054700040F8043B51F8043B40F8043B51F8043B2E
:1054800040F8043B51F8043B40F8043B51F8043B1E
:1054900040F8043B403ABDD2303211D351F8043BBE
:1054A00040F8043B51F8043B40F8043B51F8043BFE
:1054B00040F8043B51F8043B40F8043B103AEDD26D
:1054C0000C3205D351F8043B40F8043B043AF9D2BE
:1054D000043208D0D2071CBF11F8013B00F8013B91
:1054E00001D30B8803806046704700BF082A13D39E
:1054F0008B078DD010F003038AD0C3F10403D21AB6
:10550000DB071CBF11F8013B00F8013B80D331F8E9
:10551000023B20F8023B7BE7043AD9D3013A11F869
:10552000013B00F8013BF9D20B7803704B784370D4
:105530008B78837060467047830730B548D0541E1F
:10554000002A3FD0CAB2034601E0013C3AD303F837
:10555000012B9D07F9D1032C2DD9CDB245EA0525A4
:105560000F2C45EA054536D9A4F1100222F00F0CA4
:1055700003F1200EE6444FEA121C03F1100242E947
:10558000045542E9025510327245F8D10CF101027E
:1055900014F00C0F03EB021204F00F0C13D0ACF15B
:1055A000040323F003030433134442F8045B9342DF
:1055B000FBD10CF003042CB1CAB21C4403F8012B3C
:1055C0009C42FBD130BD64461346002CF4D1F9E770
:1055D00003461446BFE71A46A446E0E7014805F033
:1055E0009FB900BFC81D0020014805F09BB900BF4E
:1055F000C81D00200FB400B5074983B004AB08688C
:1056000053F8042B8168019301F06EFE03B05DF83E
:1056100004EB04B0704700BF6800002070B5054679
:1056200088B008460C4600F08BF8224EAA6B059015
:1056300001214318CDE9066104A8022104940393D3
:10564000AC680190029122B3636E13F0010FB4F9BC
:105650000C309AB201D1980525D5910406D4626E1A
:1056600043F4005322F40052A3816266284601AA43
:10567000214604F0B1FF636E002814BF4FF0FF35E0
:105680000A25DA0702D4A3899B0506D5284608B067
:1056900070BD284604F0A2FDD6E7A06D05F042F9E2
:1056A000284608B070BDA06D05F03AF9B4F90C3089
:1056B0009AB2D2E7C0F90010024B01461868FFF712
:1056C000ADBF00BF6800002038B5074D002204467A
:1056D00008462A60FDF7B8FD431C00D038BD2B6892
:1056E000002BFBD0236038BDD41D00200EB410B5B4
:1056F0009DB06FF000411FABCDE90601049109494F
:1057000053F8042B0290084C0868019302A90594F1
:1057100000F086F8029B00221A701DB0BDE8104010
:1057200003B07047680000200802FFFF000000007F
:105730000000000000000000000000000000000069
:1057400090F800F06DE9024520F007016FF0000CC1
:1057500010F0070491F820F040F049804FF0000469
:105760006FF00700D1E9002391F840F000F1080044
:1057700082FA4CF2A4FA8CF283FA4CF3A2FA8CF37C
:105780004BBBD1E9022382FA4CF200F10800A4FAE3
:105790008CF283FA4CF3A2FA8CF3E3B9D1E9042337
:1057A00082FA4CF200F10800A4FA8CF283FA4CF36E
:1057B000A2FA8CF37BB9D1E9062301F1200182FA28
:1057C0004CF200F10800A4FA8CF283FA4CF3A2FA2E
:1057D0008CF3002BC6D0002A04BF04301A4612BA3C
:1057E000B2FA82F2FDE8024500EBD2007047D1E93F
:1057F000002304F00305C4F100004FEAC50514F0CE
:10580000040F91F840F00CFA05F562EA05021CBF9E
:1058100063EA050362464FF00004A9E700000000B8
:105820002DE9F04F2DED0A8BD3B00C46914609EED1
:10583000101A0D9309EE900A05F06AF803681793A1
:105840001846FFF77DFFA38916901A0603D5236932
:10585000002B00F0A1874D469FEDA57B2B780024FF
:1058600029AACDE92744CDE91944CDE91B448DEDA2
:10587000147B19EE909A12942692904618940994EB
:10588000002B00F0EC81AB4604E01BF8013F002B3D
:1058900000F01A81252BF8D1BBEB050640F01881EA
:1058A0009BF80030002B00F0DA8100234FF0FF322C
:1058B0009BF801708DF87B300A930BF1010B089275
:1058C0009A462B2420210BF1010BA7F120035A2B20
:1058D00000F23C81DFE813F0D5023A013A01D00230
:1058E0003A013A013A016A003A013A016502FE02C0
:1058F0003A017002E4023A01DF025B005B005B00E8
:105900005B005B005B005B005B005B003A013A01FF
:105910003A013A013A013A013A01D2013A0136021A
:105920008500D201D201D2013A013A013A013A018D
:10593000CB023A013A01C6003A013A013A0140026B
:105940003A0175023A013A0150073A013A013A0127
:105950003A013A013A013A013A01D2013A013602DA
:105960008700D201D201D201BE02870080003A0135
:10597000B1023A019902C800870280003A01400250
:105980007D002B073A013A012F073A017D00A7F16C
:10599000300300221BF8017B02EB820203EB420280
:1059A000A7F13003092BF5D90A928EE7484604F097
:1059B000AFFF43681B931846FFF7C2FE1C900646D4
:1059C000484604F0A5FF836819932021002E40F07B
:1059D000C2859BF8007076E79BF800704AF0200AB9
:1059E00071E74AF0100A1AF0200F0D9B00F09A811F
:1059F000073323F007031A465B6852F8084B0D92F1
:105A00001E46002BC0F26B85089B013301F03A80E3
:105A10002AF08003079354EA060300F0E7840A2C77
:105A200076F1000380F0918730340123DDF81CA06B
:105A30008DF847410B930DF2471508990B989DF887
:105A40007B3081424FF00002B8BF01460C920791B3
:105A5000109213921192002B00F08980079A013264
:105A6000079284E04AF0100A1AF0200600F04B81F9
:105A70000D9B073323F007035E6853F8084B0D9323
:105A80002AF480630793002300228DF87B20089A74
:105A9000551C00F02682079921F0800A54EA06017D
:105AA00040F01D82002A41F02980002B40F0A484A0
:105AB000079B13F001030B9300F0428530238DF810
:105AC00047310DF24715B8E7BBEB050600F0C7807C
:105AD000289B33442893279B0133072BC8E90056A2
